{
  "_format": "hh-sol-artifact-1",
  "contractName": "NFT",
  "sourceName": "contracts/NFT.sol",
  "abi": [
    {
      "inputs": [
        {
          "internalType": "string",
          "name": "_name",
          "type": "string"
        },
        {
          "internalType": "string",
          "name": "_symbol",
          "type": "string"
        },
        {
          "internalType": "string",
          "name": "_initBaseUri",
          "type": "string"
        },
        {
          "internalType": "string",
          "name": "_initNotRevealedUri",
          "type": "string"
        }
      ],
      "stateMutability": "nonpayable",
      "type": "constructor"
    },
    {
      "anonymous": false,
      "inputs": [
        {
          "indexed": true,
          "internalType": "address",
          "name": "owner",
          "type": "address"
        },
        {
          "indexed": true,
          "internalType": "address",
          "name": "approved",
          "type": "address"
        },
        {
          "indexed": true,
          "internalType": "uint256",
          "name": "tokenId",
          "type": "uint256"
        }
      ],
      "name": "Approval",
      "type": "event"
    },
    {
      "anonymous": false,
      "inputs": [
        {
          "indexed": true,
          "internalType": "address",
          "name": "owner",
          "type": "address"
        },
        {
          "indexed": true,
          "internalType": "address",
          "name": "operator",
          "type": "address"
        },
        {
          "indexed": false,
          "internalType": "bool",
          "name": "approved",
          "type": "bool"
        }
      ],
      "name": "ApprovalForAll",
      "type": "event"
    },
    {
      "anonymous": false,
      "inputs": [
        {
          "indexed": true,
          "internalType": "address",
          "name": "previousOwner",
          "type": "address"
        },
        {
          "indexed": true,
          "internalType": "address",
          "name": "newOwner",
          "type": "address"
        }
      ],
      "name": "OwnershipTransferred",
      "type": "event"
    },
    {
      "anonymous": false,
      "inputs": [
        {
          "indexed": true,
          "internalType": "address",
          "name": "from",
          "type": "address"
        },
        {
          "indexed": true,
          "internalType": "address",
          "name": "to",
          "type": "address"
        },
        {
          "indexed": true,
          "internalType": "uint256",
          "name": "tokenId",
          "type": "uint256"
        }
      ],
      "name": "Transfer",
      "type": "event"
    },
    {
      "inputs": [
        {
          "internalType": "address",
          "name": "to",
          "type": "address"
        },
        {
          "internalType": "uint256",
          "name": "tokenId",
          "type": "uint256"
        }
      ],
      "name": "approve",
      "outputs": [],
      "stateMutability": "nonpayable",
      "type": "function"
    },
    {
      "inputs": [
        {
          "internalType": "address",
          "name": "owner",
          "type": "address"
        }
      ],
      "name": "balanceOf",
      "outputs": [
        {
          "internalType": "uint256",
          "name": "",
          "type": "uint256"
        }
      ],
      "stateMutability": "view",
      "type": "function"
    },
    {
      "inputs": [
        {
          "internalType": "bool",
          "name": "_isHiddenURI",
          "type": "bool"
        }
      ],
      "name": "enableURI",
      "outputs": [],
      "stateMutability": "nonpayable",
      "type": "function"
    },
    {
      "inputs": [
        {
          "internalType": "uint256",
          "name": "tokenId",
          "type": "uint256"
        }
      ],
      "name": "getApproved",
      "outputs": [
        {
          "internalType": "address",
          "name": "",
          "type": "address"
        }
      ],
      "stateMutability": "view",
      "type": "function"
    },
    {
      "inputs": [
        {
          "internalType": "address",
          "name": "owner",
          "type": "address"
        },
        {
          "internalType": "address",
          "name": "operator",
          "type": "address"
        }
      ],
      "name": "isApprovedForAll",
      "outputs": [
        {
          "internalType": "bool",
          "name": "",
          "type": "bool"
        }
      ],
      "stateMutability": "view",
      "type": "function"
    },
    {
      "inputs": [],
      "name": "isHiddenURI",
      "outputs": [
        {
          "internalType": "bool",
          "name": "",
          "type": "bool"
        }
      ],
      "stateMutability": "view",
      "type": "function"
    },
    {
      "inputs": [],
      "name": "isPublicMintEnabled",
      "outputs": [
        {
          "internalType": "bool",
          "name": "",
          "type": "bool"
        }
      ],
      "stateMutability": "view",
      "type": "function"
    },
    {
      "inputs": [],
      "name": "maxPerWallet",
      "outputs": [
        {
          "internalType": "uint256",
          "name": "",
          "type": "uint256"
        }
      ],
      "stateMutability": "view",
      "type": "function"
    },
    {
      "inputs": [],
      "name": "maxSupply",
      "outputs": [
        {
          "internalType": "uint256",
          "name": "",
          "type": "uint256"
        }
      ],
      "stateMutability": "view",
      "type": "function"
    },
    {
      "inputs": [
        {
          "internalType": "uint256",
          "name": "_mintAmount",
          "type": "uint256"
        }
      ],
      "name": "mint",
      "outputs": [],
      "stateMutability": "payable",
      "type": "function"
    },
    {
      "inputs": [],
      "name": "mintCost",
      "outputs": [
        {
          "internalType": "uint256",
          "name": "",
          "type": "uint256"
        }
      ],
      "stateMutability": "view",
      "type": "function"
    },
    {
      "inputs": [],
      "name": "name",
      "outputs": [
        {
          "internalType": "string",
          "name": "",
          "type": "string"
        }
      ],
      "stateMutability": "view",
      "type": "function"
    },
    {
      "inputs": [],
      "name": "owner",
      "outputs": [
        {
          "internalType": "address",
          "name": "",
          "type": "address"
        }
      ],
      "stateMutability": "view",
      "type": "function"
    },
    {
      "inputs": [
        {
          "internalType": "uint256",
          "name": "tokenId",
          "type": "uint256"
        }
      ],
      "name": "ownerOf",
      "outputs": [
        {
          "internalType": "address",
          "name": "",
          "type": "address"
        }
      ],
      "stateMutability": "view",
      "type": "function"
    },
    {
      "inputs": [],
      "name": "renounceOwnership",
      "outputs": [],
      "stateMutability": "nonpayable",
      "type": "function"
    },
    {
      "inputs": [
        {
          "internalType": "address",
          "name": "from",
          "type": "address"
        },
        {
          "internalType": "address",
          "name": "to",
          "type": "address"
        },
        {
          "internalType": "uint256",
          "name": "tokenId",
          "type": "uint256"
        }
      ],
      "name": "safeTransferFrom",
      "outputs": [],
      "stateMutability": "nonpayable",
      "type": "function"
    },
    {
      "inputs": [
        {
          "internalType": "address",
          "name": "from",
          "type": "address"
        },
        {
          "internalType": "address",
          "name": "to",
          "type": "address"
        },
        {
          "internalType": "uint256",
          "name": "tokenId",
          "type": "uint256"
        },
        {
          "internalType": "bytes",
          "name": "data",
          "type": "bytes"
        }
      ],
      "name": "safeTransferFrom",
      "outputs": [],
      "stateMutability": "nonpayable",
      "type": "function"
    },
    {
      "inputs": [
        {
          "internalType": "address",
          "name": "operator",
          "type": "address"
        },
        {
          "internalType": "bool",
          "name": "approved",
          "type": "bool"
        }
      ],
      "name": "setApprovalForAll",
      "outputs": [],
      "stateMutability": "nonpayable",
      "type": "function"
    },
    {
      "inputs": [
        {
          "internalType": "bool",
          "name": "_isPublicMintEnabled",
          "type": "bool"
        }
      ],
      "name": "setPublicMint",
      "outputs": [],
      "stateMutability": "nonpayable",
      "type": "function"
    },
    {
      "inputs": [
        {
          "internalType": "bytes4",
          "name": "interfaceId",
          "type": "bytes4"
        }
      ],
      "name": "supportsInterface",
      "outputs": [
        {
          "internalType": "bool",
          "name": "",
          "type": "bool"
        }
      ],
      "stateMutability": "view",
      "type": "function"
    },
    {
      "inputs": [],
      "name": "symbol",
      "outputs": [
        {
          "internalType": "string",
          "name": "",
          "type": "string"
        }
      ],
      "stateMutability": "view",
      "type": "function"
    },
    {
      "inputs": [
        {
          "internalType": "uint256",
          "name": "_tokenId",
          "type": "uint256"
        }
      ],
      "name": "tokenURI",
      "outputs": [
        {
          "internalType": "string",
          "name": "",
          "type": "string"
        }
      ],
      "stateMutability": "view",
      "type": "function"
    },
    {
      "inputs": [],
      "name": "totalSupply",
      "outputs": [
        {
          "internalType": "uint256",
          "name": "",
          "type": "uint256"
        }
      ],
      "stateMutability": "view",
      "type": "function"
    },
    {
      "inputs": [
        {
          "internalType": "address",
          "name": "from",
          "type": "address"
        },
        {
          "internalType": "address",
          "name": "to",
          "type": "address"
        },
        {
          "internalType": "uint256",
          "name": "tokenId",
          "type": "uint256"
        }
      ],
      "name": "transferFrom",
      "outputs": [],
      "stateMutability": "nonpayable",
      "type": "function"
    },
    {
      "inputs": [
        {
          "internalType": "address",
          "name": "newOwner",
          "type": "address"
        }
      ],
      "name": "transferOwnership",
      "outputs": [],
      "stateMutability": "nonpayable",
      "type": "function"
    },
    {
      "inputs": [
        {
          "internalType": "address",
          "name": "",
          "type": "address"
        }
      ],
      "name": "walletMints",
      "outputs": [
        {
          "internalType": "uint256",
          "name": "",
          "type": "uint256"
        }
      ],
      "stateMutability": "view",
      "type": "function"
    },
    {
      "inputs": [],
      "name": "withdraw",
      "outputs": [],
      "stateMutability": "payable",
      "type": "function"
    }
  ],
  "bytecode": "0x60806040523480156200001157600080fd5b50604051620039f0380380620039f0833981810160405281019062000037919062000426565b8383816000908051906020019062000051929190620001d9565b5080600190805190602001906200006a929190620001d9565b5050506200008d620000816200010b60201b60201c565b6200011360201b60201c565b81600c9080519060200190620000a5929190620001d9565b5080600d9080519060200190620000be929190620001d9565b5066470de4df8200006007819055506001600b60016101000a81548160ff0219169083151502179055506000600a819055506103e860098190555060036008819055505050505062000579565b600033905090565b6000600660009054906101000a900473ffffffffffffffffffffffffffffffffffffffff16905081600660006101000a81548173ffffffffffffffffffffffffffffffffffffffff021916908373ffffffffffffffffffffffffffffffffffffffff1602179055508173ffffffffffffffffffffffffffffffffffffffff168173ffffffffffffffffffffffffffffffffffffffff167f8be0079c531659141344cd1fd0a4f28419497f9722a3daafe3b4186f6b6457e060405160405180910390a35050565b828054620001e79062000543565b90600052602060002090601f0160209004810192826200020b576000855562000257565b82601f106200022657805160ff191683800117855562000257565b8280016001018555821562000257579182015b828111156200025657825182559160200191906001019062000239565b5b5090506200026691906200026a565b5090565b5b80821115620002855760008160009055506001016200026b565b5090565b6000604051905090565b600080fd5b600080fd5b600080fd5b600080fd5b6000601f19601f8301169050919050565b7f4e487b7100000000000000000000000000000000000000000000000000000000600052604160045260246000fd5b620002f282620002a7565b810181811067ffffffffffffffff82111715620003145762000313620002b8565b5b80604052505050565b60006200032962000289565b9050620003378282620002e7565b919050565b600067ffffffffffffffff8211156200035a5762000359620002b8565b5b6200036582620002a7565b9050602081019050919050565b60005b838110156200039257808201518184015260208101905062000375565b83811115620003a2576000848401525b50505050565b6000620003bf620003b9846200033c565b6200031d565b905082815260208101848484011115620003de57620003dd620002a2565b5b620003eb84828562000372565b509392505050565b600082601f8301126200040b576200040a6200029d565b5b81516200041d848260208601620003a8565b91505092915050565b6000806000806080858703121562000443576200044262000293565b5b600085015167ffffffffffffffff81111562000464576200046362000298565b5b6200047287828801620003f3565b945050602085015167ffffffffffffffff81111562000496576200049562000298565b5b620004a487828801620003f3565b935050604085015167ffffffffffffffff811115620004c857620004c762000298565b5b620004d687828801620003f3565b925050606085015167ffffffffffffffff811115620004fa57620004f962000298565b5b6200050887828801620003f3565b91505092959194509250565b7f4e487b7100000000000000000000000000000000000000000000000000000000600052602260045260246000fd5b600060028204905060018216806200055c57607f821691505b6020821081141562000573576200057262000514565b5b50919050565b61346780620005896000396000f3fe60806040526004361061019c5760003560e01c806370a08231116100ec578063b88d4fde1161008a578063d5abeb0111610064578063d5abeb0114610586578063e985e9c5146105b1578063f0293fd3146105ee578063f2fde38b1461062b5761019c565b8063b88d4fde146104f5578063bdb4b8481461051e578063c87b56dd146105495761019c565b806395d89b41116100c657806395d89b411461045a578063a0712d6814610485578063a22cb465146104a1578063aeb57f65146104ca5761019c565b806370a08231146103db578063715018a6146104185780638da5cb5b1461042f5761019c565b806318160ddd1161015957806342842e0e1161013357806342842e0e14610321578063453c23101461034a57806360018e1d146103755780636352211e1461039e5761019c565b806318160ddd146102c357806323b872dd146102ee5780633ccfd60b146103175761019c565b80630116bc2d146101a157806301ffc9a7146101cc57806306fdde0314610209578063081812fc14610234578063095ea7b3146102715780630e2d56cf1461029a575b600080fd5b3480156101ad57600080fd5b506101b6610654565b6040516101c3919061204e565b60405180910390f35b3480156101d857600080fd5b506101f360048036038101906101ee91906120d5565b610667565b604051610200919061204e565b60405180910390f35b34801561021557600080fd5b5061021e610749565b60405161022b919061219b565b60405180910390f35b34801561024057600080fd5b5061025b600480360381019061025691906121f3565b6107db565b6040516102689190612261565b60405180910390f35b34801561027d57600080fd5b50610298600480360381019061029391906122a8565b610821565b005b3480156102a657600080fd5b506102c160048036038101906102bc9190612314565b610939565b005b3480156102cf57600080fd5b506102d861095e565b6040516102e59190612350565b60405180910390f35b3480156102fa57600080fd5b506103156004803603810190610310919061236b565b610964565b005b61031f6109c4565b005b34801561032d57600080fd5b506103486004803603810190610343919061236b565b610a82565b005b34801561035657600080fd5b5061035f610aa2565b60405161036c9190612350565b60405180910390f35b34801561038157600080fd5b5061039c60048036038101906103979190612314565b610aa8565b005b3480156103aa57600080fd5b506103c560048036038101906103c091906121f3565b610acd565b6040516103d29190612261565b60405180910390f35b3480156103e757600080fd5b5061040260048036038101906103fd91906123be565b610b7f565b60405161040f9190612350565b60405180910390f35b34801561042457600080fd5b5061042d610c37565b005b34801561043b57600080fd5b50610444610c4b565b6040516104519190612261565b60405180910390f35b34801561046657600080fd5b5061046f610c75565b60405161047c919061219b565b60405180910390f35b61049f600480360381019061049a91906121f3565b610d07565b005b3480156104ad57600080fd5b506104c860048036038101906104c391906123eb565b610f28565b005b3480156104d657600080fd5b506104df610f3e565b6040516104ec919061204e565b60405180910390f35b34801561050157600080fd5b5061051c60048036038101906105179190612560565b610f51565b005b34801561052a57600080fd5b50610533610fb3565b6040516105409190612350565b60405180910390f35b34801561055557600080fd5b50610570600480360381019061056b91906121f3565b610fb9565b60405161057d919061219b565b60405180910390f35b34801561059257600080fd5b5061059b611108565b6040516105a89190612350565b60405180910390f35b3480156105bd57600080fd5b506105d860048036038101906105d391906125e3565b61110e565b6040516105e5919061204e565b60405180910390f35b3480156105fa57600080fd5b50610615600480360381019061061091906123be565b6111a2565b6040516106229190612350565b60405180910390f35b34801561063757600080fd5b50610652600480360381019061064d91906123be565b6111ba565b005b600b60009054906101000a900460ff1681565b60007f80ac58cd000000000000000000000000000000000000000000000000000000007bffffffffffffffffffffffffffffffffffffffffffffffffffffffff1916827bffffffffffffffffffffffffffffffffffffffffffffffffffffffff1916148061073257507f5b5e139f000000000000000000000000000000000000000000000000000000007bffffffffffffffffffffffffffffffffffffffffffffffffffffffff1916827bffffffffffffffffffffffffffffffffffffffffffffffffffffffff1916145b8061074257506107418261123e565b5b9050919050565b60606000805461075890612652565b80601f016020809104026020016040519081016040528092919081815260200182805461078490612652565b80156107d15780601f106107a6576101008083540402835291602001916107d1565b820191906000526020600020905b8154815290600101906020018083116107b457829003601f168201915b5050505050905090565b60006107e6826112a8565b6004600083815260200190815260200160002060009054906101000a900473ffffffffffffffffffffffffffffffffffffffff169050919050565b600061082c82610acd565b90508073ffffffffffffffffffffffffffffffffffffffff168373ffffffffffffffffffffffffffffffffffffffff16141561089d576040517f08c379a0000000000000000000000000000000000000000000000000000000008152600401610894906126f6565b60405180910390fd5b8073ffffffffffffffffffffffffffffffffffffffff166108bc6112f3565b73ffffffffffffffffffffffffffffffffffffffff1614806108eb57506108ea816108e56112f3565b61110e565b5b61092a576040517f08c379a000000000000000000000000000000000000000000000000000000000815260040161092190612788565b60405180910390fd5b61093483836112fb565b505050565b6109416113b4565b80600b60006101000a81548160ff02191690831515021790555050565b600a5481565b61097561096f6112f3565b82611432565b6109b4576040517f08c379a00000000000000000000000000000000000000000000000000000000081526004016109ab9061281a565b60405180910390fd5b6109bf8383836114c7565b505050565b6109cc6113b4565b60006109d6610c4b565b73ffffffffffffffffffffffffffffffffffffffff16476040516109f99061286b565b60006040518083038185875af1925050503d8060008114610a36576040519150601f19603f3d011682016040523d82523d6000602084013e610a3b565b606091505b5050905080610a7f576040517f08c379a0000000000000000000000000000000000000000000000000000000008152600401610a76906128cc565b60405180910390fd5b50565b610a9d83838360405180602001604052806000815250610f51565b505050565b60085481565b610ab06113b4565b80600b60016101000a81548160ff02191690831515021790555050565b6000806002600084815260200190815260200160002060009054906101000a900473ffffffffffffffffffffffffffffffffffffffff169050600073ffffffffffffffffffffffffffffffffffffffff168173ffffffffffffffffffffffffffffffffffffffff161415610b76576040517f08c379a0000000000000000000000000000000000000000000000000000000008152600401610b6d90612938565b60405180910390fd5b80915050919050565b60008073ffffffffffffffffffffffffffffffffffffffff168273ffffffffffffffffffffffffffffffffffffffff161415610bf0576040517f08c379a0000000000000000000000000000000000000000000000000000000008152600401610be7906129ca565b60405180910390fd5b600360008373ffffffffffffffffffffffffffffffffffffffff1673ffffffffffffffffffffffffffffffffffffffff168152602001908152602001600020549050919050565b610c3f6113b4565b610c49600061172e565b565b6000600660009054906101000a900473ffffffffffffffffffffffffffffffffffffffff16905090565b606060018054610c8490612652565b80601f0160208091040260200160405190810160405280929190818152602001828054610cb090612652565b8015610cfd5780601f10610cd257610100808354040283529160200191610cfd565b820191906000526020600020905b815481529060010190602001808311610ce057829003601f168201915b5050505050905090565b600b60009054906101000a900460ff16610d56576040517f08c379a0000000000000000000000000000000000000000000000000000000008152600401610d4d90612a36565b60405180910390fd5b60075481610d649190612a85565b341015610da6576040517f08c379a0000000000000000000000000000000000000000000000000000000008152600401610d9d90612b2b565b60405180910390fd5b60095481600a54610db79190612b4b565b1115610df8576040517f08c379a0000000000000000000000000000000000000000000000000000000008152600401610def90612bed565b60405180910390fd5b60085481600e60003373ffffffffffffffffffffffffffffffffffffffff1673ffffffffffffffffffffffffffffffffffffffff16815260200190815260200160002054610e469190612b4b565b1115610e87576040517f08c379a0000000000000000000000000000000000000000000000000000000008152600401610e7e90612c59565b60405180910390fd5b60005b81811015610f2457600a6000815480929190610ea590612c79565b9190505550600e60003373ffffffffffffffffffffffffffffffffffffffff1673ffffffffffffffffffffffffffffffffffffffff1681526020019081526020016000206000815480929190610efa90612c79565b91905055506000600a549050610f1033826117f4565b508080610f1c90612c79565b915050610e8a565b5050565b610f3a610f336112f3565b8383611812565b5050565b600b60019054906101000a900460ff1681565b610f62610f5c6112f3565b83611432565b610fa1576040517f08c379a0000000000000000000000000000000000000000000000000000000008152600401610f989061281a565b60405180910390fd5b610fad8484848461197f565b50505050565b60075481565b6060610fc4826119db565b611003576040517f08c379a0000000000000000000000000000000000000000000000000000000008152600401610ffa90612d34565b60405180910390fd5b600b60019054906101000a900460ff16156110aa57600d805461102590612652565b80601f016020809104026020016040519081016040528092919081815260200182805461105190612652565b801561109e5780601f106110735761010080835404028352916020019161109e565b820191906000526020600020905b81548152906001019060200180831161108157829003601f168201915b50505050509050611103565b60006110b4611a47565b905060008151116110d457604051806020016040528060008152506110ff565b806110de84611ad9565b6040516020016110ef929190612e28565b6040516020818303038152906040525b9150505b919050565b60095481565b6000600560008473ffffffffffffffffffffffffffffffffffffffff1673ffffffffffffffffffffffffffffffffffffffff16815260200190815260200160002060008373ffffffffffffffffffffffffffffffffffffffff1673ffffffffffffffffffffffffffffffffffffffff16815260200190815260200160002060009054906101000a900460ff16905092915050565b600e6020528060005260406000206000915090505481565b6111c26113b4565b600073ffffffffffffffffffffffffffffffffffffffff168173ffffffffffffffffffffffffffffffffffffffff161415611232576040517f08c379a000000000000000000000000000000000000000000000000000000000815260040161122990612ed4565b60405180910390fd5b61123b8161172e565b50565b60007f01ffc9a7000000000000000000000000000000000000000000000000000000007bffffffffffffffffffffffffffffffffffffffffffffffffffffffff1916827bffffffffffffffffffffffffffffffffffffffffffffffffffffffff1916149050919050565b6112b1816119db565b6112f0576040517f08c379a00000000000000000000000000000000000000000000000000000000081526004016112e790612938565b60405180910390fd5b50565b600033905090565b816004600083815260200190815260200160002060006101000a81548173ffffffffffffffffffffffffffffffffffffffff021916908373ffffffffffffffffffffffffffffffffffffffff160217905550808273ffffffffffffffffffffffffffffffffffffffff1661136e83610acd565b73ffffffffffffffffffffffffffffffffffffffff167f8c5be1e5ebec7d5bd14f71427d1e84f3dd0314c0f7b2291e5b200ac8c7c3b92560405160405180910390a45050565b6113bc6112f3565b73ffffffffffffffffffffffffffffffffffffffff166113da610c4b565b73ffffffffffffffffffffffffffffffffffffffff1614611430576040517f08c379a000000000000000000000000000000000000000000000000000000000815260040161142790612f40565b60405180910390fd5b565b60008061143e83610acd565b90508073ffffffffffffffffffffffffffffffffffffffff168473ffffffffffffffffffffffffffffffffffffffff161480611480575061147f818561110e565b5b806114be57508373ffffffffffffffffffffffffffffffffffffffff166114a6846107db565b73ffffffffffffffffffffffffffffffffffffffff16145b91505092915050565b8273ffffffffffffffffffffffffffffffffffffffff166114e782610acd565b73ffffffffffffffffffffffffffffffffffffffff161461153d576040517f08c379a000000000000000000000000000000000000000000000000000000000815260040161153490612fd2565b60405180910390fd5b600073ffffffffffffffffffffffffffffffffffffffff168273ffffffffffffffffffffffffffffffffffffffff1614156115ad576040517f08c379a00000000000000000000000000000000000000000000000000000000081526004016115a490613064565b60405180910390fd5b6115b8838383611c3a565b6115c36000826112fb565b6001600360008573ffffffffffffffffffffffffffffffffffffffff1673ffffffffffffffffffffffffffffffffffffffff16815260200190815260200160002060008282546116139190613084565b925050819055506001600360008473ffffffffffffffffffffffffffffffffffffffff1673ffffffffffffffffffffffffffffffffffffffff168152602001908152602001600020600082825461166a9190612b4b565b92505081905550816002600083815260200190815260200160002060006101000a81548173ffffffffffffffffffffffffffffffffffffffff021916908373ffffffffffffffffffffffffffffffffffffffff160217905550808273ffffffffffffffffffffffffffffffffffffffff168473ffffffffffffffffffffffffffffffffffffffff167fddf252ad1be2c89b69c2b068fc378daa952ba7f163c4a11628f55a4df523b3ef60405160405180910390a4611729838383611c3f565b505050565b6000600660009054906101000a900473ffffffffffffffffffffffffffffffffffffffff16905081600660006101000a81548173ffffffffffffffffffffffffffffffffffffffff021916908373ffffffffffffffffffffffffffffffffffffffff1602179055508173ffffffffffffffffffffffffffffffffffffffff168173ffffffffffffffffffffffffffffffffffffffff167f8be0079c531659141344cd1fd0a4f28419497f9722a3daafe3b4186f6b6457e060405160405180910390a35050565b61180e828260405180602001604052806000815250611c44565b5050565b8173ffffffffffffffffffffffffffffffffffffffff168373ffffffffffffffffffffffffffffffffffffffff161415611881576040517f08c379a000000000000000000000000000000000000000000000000000000000815260040161187890613104565b60405180910390fd5b80600560008573ffffffffffffffffffffffffffffffffffffffff1673ffffffffffffffffffffffffffffffffffffffff16815260200190815260200160002060008473ffffffffffffffffffffffffffffffffffffffff1673ffffffffffffffffffffffffffffffffffffffff16815260200190815260200160002060006101000a81548160ff0219169083151502179055508173ffffffffffffffffffffffffffffffffffffffff168373ffffffffffffffffffffffffffffffffffffffff167f17307eab39ab6107e8899845ad3d59bd9653f200f220920489ca2b5937696c3183604051611972919061204e565b60405180910390a3505050565b61198a8484846114c7565b61199684848484611c9f565b6119d5576040517f08c379a00000000000000000000000000000000000000000000000000000000081526004016119cc90613196565b60405180910390fd5b50505050565b60008073ffffffffffffffffffffffffffffffffffffffff166002600084815260200190815260200160002060009054906101000a900473ffffffffffffffffffffffffffffffffffffffff1673ffffffffffffffffffffffffffffffffffffffff1614159050919050565b6060600c8054611a5690612652565b80601f0160208091040260200160405190810160405280929190818152602001828054611a8290612652565b8015611acf5780601f10611aa457610100808354040283529160200191611acf565b820191906000526020600020905b815481529060010190602001808311611ab257829003601f168201915b5050505050905090565b60606000821415611b21576040518060400160405280600181526020017f30000000000000000000000000000000000000000000000000000000000000008152509050611c35565b600082905060005b60008214611b53578080611b3c90612c79565b915050600a82611b4c91906131e5565b9150611b29565b60008167ffffffffffffffff811115611b6f57611b6e612435565b5b6040519080825280601f01601f191660200182016040528015611ba15781602001600182028036833780820191505090505b5090505b60008514611c2e57600182611bba9190613084565b9150600a85611bc99190613216565b6030611bd59190612b4b565b60f81b818381518110611beb57611bea613247565b5b60200101907effffffffffffffffffffffffffffffffffffffffffffffffffffffffffffff1916908160001a905350600a85611c2791906131e5565b9450611ba5565b8093505050505b919050565b505050565b505050565b611c4e8383611e36565b611c5b6000848484611c9f565b611c9a576040517f08c379a0000000000000000000000000000000000000000000000000000000008152600401611c9190613196565b60405180910390fd5b505050565b6000611cc08473ffffffffffffffffffffffffffffffffffffffff16612010565b15611e29578373ffffffffffffffffffffffffffffffffffffffff1663150b7a02611ce96112f3565b8786866040518563ffffffff1660e01b8152600401611d0b94939291906132cb565b602060405180830381600087803b158015611d2557600080fd5b505af1925050508015611d5657506040513d601f19601f82011682018060405250810190611d53919061332c565b60015b611dd9573d8060008114611d86576040519150601f19603f3d011682016040523d82523d6000602084013e611d8b565b606091505b50600081511415611dd1576040517f08c379a0000000000000000000000000000000000000000000000000000000008152600401611dc890613196565b60405180910390fd5b805181602001fd5b63150b7a0260e01b7bffffffffffffffffffffffffffffffffffffffffffffffffffffffff1916817bffffffffffffffffffffffffffffffffffffffffffffffffffffffff191614915050611e2e565b600190505b949350505050565b600073ffffffffffffffffffffffffffffffffffffffff168273ffffffffffffffffffffffffffffffffffffffff161415611ea6576040517f08c379a0000000000000000000000000000000000000000000000000000000008152600401611e9d906133a5565b60405180910390fd5b611eaf816119db565b15611eef576040517f08c379a0000000000000000000000000000000000000000000000000000000008152600401611ee690613411565b60405180910390fd5b611efb60008383611c3a565b6001600360008473ffffffffffffffffffffffffffffffffffffffff1673ffffffffffffffffffffffffffffffffffffffff1681526020019081526020016000206000828254611f4b9190612b4b565b92505081905550816002600083815260200190815260200160002060006101000a81548173ffffffffffffffffffffffffffffffffffffffff021916908373ffffffffffffffffffffffffffffffffffffffff160217905550808273ffffffffffffffffffffffffffffffffffffffff16600073ffffffffffffffffffffffffffffffffffffffff167fddf252ad1be2c89b69c2b068fc378daa952ba7f163c4a11628f55a4df523b3ef60405160405180910390a461200c60008383611c3f565b5050565b6000808273ffffffffffffffffffffffffffffffffffffffff163b119050919050565b60008115159050919050565b61204881612033565b82525050565b6000602082019050612063600083018461203f565b92915050565b6000604051905090565b600080fd5b600080fd5b60007fffffffff0000000000000000000000000000000000000000000000000000000082169050919050565b6120b28161207d565b81146120bd57600080fd5b50565b6000813590506120cf816120a9565b92915050565b6000602082840312156120eb576120ea612073565b5b60006120f9848285016120c0565b91505092915050565b600081519050919050565b600082825260208201905092915050565b60005b8381101561213c578082015181840152602081019050612121565b8381111561214b576000848401525b50505050565b6000601f19601f8301169050919050565b600061216d82612102565b612177818561210d565b935061218781856020860161211e565b61219081612151565b840191505092915050565b600060208201905081810360008301526121b58184612162565b905092915050565b6000819050919050565b6121d0816121bd565b81146121db57600080fd5b50565b6000813590506121ed816121c7565b92915050565b60006020828403121561220957612208612073565b5b6000612217848285016121de565b91505092915050565b600073ffffffffffffffffffffffffffffffffffffffff82169050919050565b600061224b82612220565b9050919050565b61225b81612240565b82525050565b60006020820190506122766000830184612252565b92915050565b61228581612240565b811461229057600080fd5b50565b6000813590506122a28161227c565b92915050565b600080604083850312156122bf576122be612073565b5b60006122cd85828601612293565b92505060206122de858286016121de565b9150509250929050565b6122f181612033565b81146122fc57600080fd5b50565b60008135905061230e816122e8565b92915050565b60006020828403121561232a57612329612073565b5b6000612338848285016122ff565b91505092915050565b61234a816121bd565b82525050565b60006020820190506123656000830184612341565b92915050565b60008060006060848603121561238457612383612073565b5b600061239286828701612293565b93505060206123a386828701612293565b92505060406123b4868287016121de565b9150509250925092565b6000602082840312156123d4576123d3612073565b5b60006123e284828501612293565b91505092915050565b6000806040838503121561240257612401612073565b5b600061241085828601612293565b9250506020612421858286016122ff565b9150509250929050565b600080fd5b600080fd5b7f4e487b7100000000000000000000000000000000000000000000000000000000600052604160045260246000fd5b61246d82612151565b810181811067ffffffffffffffff8211171561248c5761248b612435565b5b80604052505050565b600061249f612069565b90506124ab8282612464565b919050565b600067ffffffffffffffff8211156124cb576124ca612435565b5b6124d482612151565b9050602081019050919050565b82818337600083830152505050565b60006125036124fe846124b0565b612495565b90508281526020810184848401111561251f5761251e612430565b5b61252a8482856124e1565b509392505050565b600082601f8301126125475761254661242b565b5b81356125578482602086016124f0565b91505092915050565b6000806000806080858703121561257a57612579612073565b5b600061258887828801612293565b945050602061259987828801612293565b93505060406125aa878288016121de565b925050606085013567ffffffffffffffff8111156125cb576125ca612078565b5b6125d787828801612532565b91505092959194509250565b600080604083850312156125fa576125f9612073565b5b600061260885828601612293565b925050602061261985828601612293565b9150509250929050565b7f4e487b7100000000000000000000000000000000000000000000000000000000600052602260045260246000fd5b6000600282049050600182168061266a57607f821691505b6020821081141561267e5761267d612623565b5b50919050565b7f4552433732313a20617070726f76616c20746f2063757272656e74206f776e6560008201527f7200000000000000000000000000000000000000000000000000000000000000602082015250565b60006126e060218361210d565b91506126eb82612684565b604082019050919050565b6000602082019050818103600083015261270f816126d3565b9050919050565b7f4552433732313a20617070726f76652063616c6c6572206973206e6f7420746f60008201527f6b656e206f776e6572206e6f7220617070726f76656420666f7220616c6c0000602082015250565b6000612772603e8361210d565b915061277d82612716565b604082019050919050565b600060208201905081810360008301526127a181612765565b9050919050565b7f4552433732313a2063616c6c6572206973206e6f7420746f6b656e206f776e6560008201527f72206e6f7220617070726f766564000000000000000000000000000000000000602082015250565b6000612804602e8361210d565b915061280f826127a8565b604082019050919050565b60006020820190508181036000830152612833816127f7565b9050919050565b600081905092915050565b50565b600061285560008361283a565b915061286082612845565b600082019050919050565b600061287682612848565b9150819050919050565b7f5769746864726177206661696c65642e00000000000000000000000000000000600082015250565b60006128b660108361210d565b91506128c182612880565b602082019050919050565b600060208201905081810360008301526128e5816128a9565b9050919050565b7f4552433732313a20696e76616c696420746f6b656e2049440000000000000000600082015250565b600061292260188361210d565b915061292d826128ec565b602082019050919050565b6000602082019050818103600083015261295181612915565b9050919050565b7f4552433732313a2061646472657373207a65726f206973206e6f74206120766160008201527f6c6964206f776e65720000000000000000000000000000000000000000000000602082015250565b60006129b460298361210d565b91506129bf82612958565b604082019050919050565b600060208201905081810360008301526129e3816129a7565b9050919050565b7f4d696e74696e672064697361626c6564206279206f776e65722e000000000000600082015250565b6000612a20601a8361210d565b9150612a2b826129ea565b602082019050919050565b60006020820190508181036000830152612a4f81612a13565b9050919050565b7f4e487b7100000000000000000000000000000000000000000000000000000000600052601160045260246000fd5b6000612a90826121bd565b9150612a9b836121bd565b9250817fffffffffffffffffffffffffffffffffffffffffffffffffffffffffffffffff0483118215151615612ad457612ad3612a56565b5b828202905092915050565b7f57726f6e67206d696e742076616c75652e000000000000000000000000000000600082015250565b6000612b1560118361210d565b9150612b2082612adf565b602082019050919050565b60006020820190508181036000830152612b4481612b08565b9050919050565b6000612b56826121bd565b9150612b61836121bd565b9250827fffffffffffffffffffffffffffffffffffffffffffffffffffffffffffffffff03821115612b9657612b95612a56565b5b828201905092915050565b7f536f6c64206f75742e0000000000000000000000000000000000000000000000600082015250565b6000612bd760098361210d565b9150612be282612ba1565b602082019050919050565b60006020820190508181036000830152612c0681612bca565b9050919050565b7f4d617820636f6c6c65637469626c657320726561636865642e00000000000000600082015250565b6000612c4360198361210d565b9150612c4e82612c0d565b602082019050919050565b60006020820190508181036000830152612c7281612c36565b9050919050565b6000612c84826121bd565b91507fffffffffffffffffffffffffffffffffffffffffffffffffffffffffffffffff821415612cb757612cb6612a56565b5b600182019050919050565b7f4552433732314d657461646174613a2055524920717565727920666f72206e6f60008201527f6e6578697374656e7420746f6b656e0000000000000000000000000000000000602082015250565b6000612d1e602f8361210d565b9150612d2982612cc2565b604082019050919050565b60006020820190508181036000830152612d4d81612d11565b9050919050565b600081905092915050565b6000612d6a82612102565b612d748185612d54565b9350612d8481856020860161211e565b80840191505092915050565b7f2f00000000000000000000000000000000000000000000000000000000000000600082015250565b6000612dc6600183612d54565b9150612dd182612d90565b600182019050919050565b7f2e6a736f6e000000000000000000000000000000000000000000000000000000600082015250565b6000612e12600583612d54565b9150612e1d82612ddc565b600582019050919050565b6000612e348285612d5f565b9150612e3f82612db9565b9150612e4b8284612d5f565b9150612e5682612e05565b91508190509392505050565b7f4f776e61626c653a206e6577206f776e657220697320746865207a65726f206160008201527f6464726573730000000000000000000000000000000000000000000000000000602082015250565b6000612ebe60268361210d565b9150612ec982612e62565b604082019050919050565b60006020820190508181036000830152612eed81612eb1565b9050919050565b7f4f776e61626c653a2063616c6c6572206973206e6f7420746865206f776e6572600082015250565b6000612f2a60208361210d565b9150612f3582612ef4565b602082019050919050565b60006020820190508181036000830152612f5981612f1d565b9050919050565b7f4552433732313a207472616e736665722066726f6d20696e636f72726563742060008201527f6f776e6572000000000000000000000000000000000000000000000000000000602082015250565b6000612fbc60258361210d565b9150612fc782612f60565b604082019050919050565b60006020820190508181036000830152612feb81612faf565b9050919050565b7f4552433732313a207472616e7366657220746f20746865207a65726f2061646460008201527f7265737300000000000000000000000000000000000000000000000000000000602082015250565b600061304e60248361210d565b915061305982612ff2565b604082019050919050565b6000602082019050818103600083015261307d81613041565b9050919050565b600061308f826121bd565b915061309a836121bd565b9250828210156130ad576130ac612a56565b5b828203905092915050565b7f4552433732313a20617070726f766520746f2063616c6c657200000000000000600082015250565b60006130ee60198361210d565b91506130f9826130b8565b602082019050919050565b6000602082019050818103600083015261311d816130e1565b9050919050565b7f4552433732313a207472616e7366657220746f206e6f6e20455243373231526560008201527f63656976657220696d706c656d656e7465720000000000000000000000000000602082015250565b600061318060328361210d565b915061318b82613124565b604082019050919050565b600060208201905081810360008301526131af81613173565b9050919050565b7f4e487b7100000000000000000000000000000000000000000000000000000000600052601260045260246000fd5b60006131f0826121bd565b91506131fb836121bd565b92508261320b5761320a6131b6565b5b828204905092915050565b6000613221826121bd565b915061322c836121bd565b92508261323c5761323b6131b6565b5b828206905092915050565b7f4e487b7100000000000000000000000000000000000000000000000000000000600052603260045260246000fd5b600081519050919050565b600082825260208201905092915050565b600061329d82613276565b6132a78185613281565b93506132b781856020860161211e565b6132c081612151565b840191505092915050565b60006080820190506132e06000830187612252565b6132ed6020830186612252565b6132fa6040830185612341565b818103606083015261330c8184613292565b905095945050505050565b600081519050613326816120a9565b92915050565b60006020828403121561334257613341612073565b5b600061335084828501613317565b91505092915050565b7f4552433732313a206d696e7420746f20746865207a65726f2061646472657373600082015250565b600061338f60208361210d565b915061339a82613359565b602082019050919050565b600060208201905081810360008301526133be81613382565b9050919050565b7f4552433732313a20746f6b656e20616c7265616479206d696e74656400000000600082015250565b60006133fb601c8361210d565b9150613406826133c5565b602082019050919050565b6000602082019050818103600083015261342a816133ee565b905091905056fea26469706673582212203e7a64d2ed6b1bbd9fce3aad4242906ee4c296e840d480d3020a516ffa3613b364736f6c63430008090033",
  "linkReferences": {},
  "deployedLinkReferences": {}
}