{
  "_format": "hh-sol-artifact-1",
  "contractName": "NFT",
  "sourceName": "contracts/NFT.sol",
  "abi": [
    {
      "inputs": [
        {
          "internalType": "string",
          "name": "_name",
          "type": "string"
        },
        {
          "internalType": "string",
          "name": "_symbol",
          "type": "string"
        },
        {
          "internalType": "string",
          "name": "_initBaseUri",
          "type": "string"
        },
        {
          "internalType": "string",
          "name": "_initNotRevealedUri",
          "type": "string"
        }
      ],
      "stateMutability": "nonpayable",
      "type": "constructor"
    },
    {
      "anonymous": false,
      "inputs": [
        {
          "indexed": true,
          "internalType": "address",
          "name": "owner",
          "type": "address"
        },
        {
          "indexed": true,
          "internalType": "address",
          "name": "approved",
          "type": "address"
        },
        {
          "indexed": true,
          "internalType": "uint256",
          "name": "tokenId",
          "type": "uint256"
        }
      ],
      "name": "Approval",
      "type": "event"
    },
    {
      "anonymous": false,
      "inputs": [
        {
          "indexed": true,
          "internalType": "address",
          "name": "owner",
          "type": "address"
        },
        {
          "indexed": true,
          "internalType": "address",
          "name": "operator",
          "type": "address"
        },
        {
          "indexed": false,
          "internalType": "bool",
          "name": "approved",
          "type": "bool"
        }
      ],
      "name": "ApprovalForAll",
      "type": "event"
    },
    {
      "anonymous": false,
      "inputs": [
        {
          "indexed": true,
          "internalType": "address",
          "name": "previousOwner",
          "type": "address"
        },
        {
          "indexed": true,
          "internalType": "address",
          "name": "newOwner",
          "type": "address"
        }
      ],
      "name": "OwnershipTransferred",
      "type": "event"
    },
    {
      "anonymous": false,
      "inputs": [
        {
          "indexed": true,
          "internalType": "address",
          "name": "from",
          "type": "address"
        },
        {
          "indexed": true,
          "internalType": "address",
          "name": "to",
          "type": "address"
        },
        {
          "indexed": true,
          "internalType": "uint256",
          "name": "tokenId",
          "type": "uint256"
        }
      ],
      "name": "Transfer",
      "type": "event"
    },
    {
      "inputs": [
        {
          "internalType": "address",
          "name": "to",
          "type": "address"
        },
        {
          "internalType": "uint256",
          "name": "tokenId",
          "type": "uint256"
        }
      ],
      "name": "approve",
      "outputs": [],
      "stateMutability": "nonpayable",
      "type": "function"
    },
    {
      "inputs": [
        {
          "internalType": "address",
          "name": "owner",
          "type": "address"
        }
      ],
      "name": "balanceOf",
      "outputs": [
        {
          "internalType": "uint256",
          "name": "",
          "type": "uint256"
        }
      ],
      "stateMutability": "view",
      "type": "function"
    },
    {
      "inputs": [
        {
          "internalType": "bool",
          "name": "_isHiddenURI",
          "type": "bool"
        }
      ],
      "name": "enableURI",
      "outputs": [],
      "stateMutability": "nonpayable",
      "type": "function"
    },
    {
      "inputs": [
        {
          "internalType": "uint256",
          "name": "tokenId",
          "type": "uint256"
        }
      ],
      "name": "getApproved",
      "outputs": [
        {
          "internalType": "address",
          "name": "",
          "type": "address"
        }
      ],
      "stateMutability": "view",
      "type": "function"
    },
    {
      "inputs": [
        {
          "internalType": "address",
          "name": "owner",
          "type": "address"
        },
        {
          "internalType": "address",
          "name": "operator",
          "type": "address"
        }
      ],
      "name": "isApprovedForAll",
      "outputs": [
        {
          "internalType": "bool",
          "name": "",
          "type": "bool"
        }
      ],
      "stateMutability": "view",
      "type": "function"
    },
    {
      "inputs": [],
      "name": "isHiddenURI",
      "outputs": [
        {
          "internalType": "bool",
          "name": "",
          "type": "bool"
        }
      ],
      "stateMutability": "view",
      "type": "function"
    },
    {
      "inputs": [],
      "name": "isPublicMintEnabled",
      "outputs": [
        {
          "internalType": "bool",
          "name": "",
          "type": "bool"
        }
      ],
      "stateMutability": "view",
      "type": "function"
    },
    {
      "inputs": [],
      "name": "maxPerWallet",
      "outputs": [
        {
          "internalType": "uint256",
          "name": "",
          "type": "uint256"
        }
      ],
      "stateMutability": "view",
      "type": "function"
    },
    {
      "inputs": [],
      "name": "maxSupply",
      "outputs": [
        {
          "internalType": "uint256",
          "name": "",
          "type": "uint256"
        }
      ],
      "stateMutability": "view",
      "type": "function"
    },
    {
      "inputs": [
        {
          "internalType": "uint256",
          "name": "_mintAmount",
          "type": "uint256"
        }
      ],
      "name": "mint",
      "outputs": [],
      "stateMutability": "payable",
      "type": "function"
    },
    {
      "inputs": [],
      "name": "mintCost",
      "outputs": [
        {
          "internalType": "uint256",
          "name": "",
          "type": "uint256"
        }
      ],
      "stateMutability": "view",
      "type": "function"
    },
    {
      "inputs": [],
      "name": "name",
      "outputs": [
        {
          "internalType": "string",
          "name": "",
          "type": "string"
        }
      ],
      "stateMutability": "view",
      "type": "function"
    },
    {
      "inputs": [],
      "name": "owner",
      "outputs": [
        {
          "internalType": "address",
          "name": "",
          "type": "address"
        }
      ],
      "stateMutability": "view",
      "type": "function"
    },
    {
      "inputs": [
        {
          "internalType": "uint256",
          "name": "tokenId",
          "type": "uint256"
        }
      ],
      "name": "ownerOf",
      "outputs": [
        {
          "internalType": "address",
          "name": "",
          "type": "address"
        }
      ],
      "stateMutability": "view",
      "type": "function"
    },
    {
      "inputs": [],
      "name": "renounceOwnership",
      "outputs": [],
      "stateMutability": "nonpayable",
      "type": "function"
    },
    {
      "inputs": [
        {
          "internalType": "address",
          "name": "from",
          "type": "address"
        },
        {
          "internalType": "address",
          "name": "to",
          "type": "address"
        },
        {
          "internalType": "uint256",
          "name": "tokenId",
          "type": "uint256"
        }
      ],
      "name": "safeTransferFrom",
      "outputs": [],
      "stateMutability": "nonpayable",
      "type": "function"
    },
    {
      "inputs": [
        {
          "internalType": "address",
          "name": "from",
          "type": "address"
        },
        {
          "internalType": "address",
          "name": "to",
          "type": "address"
        },
        {
          "internalType": "uint256",
          "name": "tokenId",
          "type": "uint256"
        },
        {
          "internalType": "bytes",
          "name": "data",
          "type": "bytes"
        }
      ],
      "name": "safeTransferFrom",
      "outputs": [],
      "stateMutability": "nonpayable",
      "type": "function"
    },
    {
      "inputs": [
        {
          "internalType": "address",
          "name": "operator",
          "type": "address"
        },
        {
          "internalType": "bool",
          "name": "approved",
          "type": "bool"
        }
      ],
      "name": "setApprovalForAll",
      "outputs": [],
      "stateMutability": "nonpayable",
      "type": "function"
    },
    {
      "inputs": [
        {
          "internalType": "bool",
          "name": "_isPublicMintEnabled",
          "type": "bool"
        }
      ],
      "name": "setPublicMint",
      "outputs": [],
      "stateMutability": "nonpayable",
      "type": "function"
    },
    {
      "inputs": [
        {
          "internalType": "bytes4",
          "name": "interfaceId",
          "type": "bytes4"
        }
      ],
      "name": "supportsInterface",
      "outputs": [
        {
          "internalType": "bool",
          "name": "",
          "type": "bool"
        }
      ],
      "stateMutability": "view",
      "type": "function"
    },
    {
      "inputs": [],
      "name": "symbol",
      "outputs": [
        {
          "internalType": "string",
          "name": "",
          "type": "string"
        }
      ],
      "stateMutability": "view",
      "type": "function"
    },
    {
      "inputs": [
        {
          "internalType": "uint256",
          "name": "_tokenId",
          "type": "uint256"
        }
      ],
      "name": "tokenURI",
      "outputs": [
        {
          "internalType": "string",
          "name": "",
          "type": "string"
        }
      ],
      "stateMutability": "view",
      "type": "function"
    },
    {
      "inputs": [],
      "name": "totalSupply",
      "outputs": [
        {
          "internalType": "uint256",
          "name": "",
          "type": "uint256"
        }
      ],
      "stateMutability": "view",
      "type": "function"
    },
    {
      "inputs": [
        {
          "internalType": "address",
          "name": "from",
          "type": "address"
        },
        {
          "internalType": "address",
          "name": "to",
          "type": "address"
        },
        {
          "internalType": "uint256",
          "name": "tokenId",
          "type": "uint256"
        }
      ],
      "name": "transferFrom",
      "outputs": [],
      "stateMutability": "nonpayable",
      "type": "function"
    },
    {
      "inputs": [
        {
          "internalType": "address",
          "name": "newOwner",
          "type": "address"
        }
      ],
      "name": "transferOwnership",
      "outputs": [],
      "stateMutability": "nonpayable",
      "type": "function"
    },
    {
      "inputs": [
        {
          "internalType": "address",
          "name": "",
          "type": "address"
        }
      ],
      "name": "walletMints",
      "outputs": [
        {
          "internalType": "uint256",
          "name": "",
          "type": "uint256"
        }
      ],
      "stateMutability": "view",
      "type": "function"
    },
    {
      "inputs": [],
      "name": "withdraw",
      "outputs": [],
      "stateMutability": "payable",
      "type": "function"
    }
  ],
  "bytecode": "0x60806040523480156200001157600080fd5b5060405162003ba238038062003ba2833981810160405281019062000037919062000350565b838381600090816200004a919062000689565b5080600190816200005c919062000689565b5050506200007f62000073620000ef60201b60201c565b620000f760201b60201c565b81600c908162000090919062000689565b5080600d9081620000a2919062000689565b5066470de4df8200006007819055506001600b60016101000a81548160ff0219169083151502179055506000600a819055506103e860098190555060036008819055505050505062000770565b600033905090565b6000600660009054906101000a900473ffffffffffffffffffffffffffffffffffffffff16905081600660006101000a81548173ffffffffffffffffffffffffffffffffffffffff021916908373ffffffffffffffffffffffffffffffffffffffff1602179055508173ffffffffffffffffffffffffffffffffffffffff168173ffffffffffffffffffffffffffffffffffffffff167f8be0079c531659141344cd1fd0a4f28419497f9722a3daafe3b4186f6b6457e060405160405180910390a35050565b6000604051905090565b600080fd5b600080fd5b600080fd5b600080fd5b6000601f19601f8301169050919050565b7f4e487b7100000000000000000000000000000000000000000000000000000000600052604160045260246000fd5b6200022682620001db565b810181811067ffffffffffffffff82111715620002485762000247620001ec565b5b80604052505050565b60006200025d620001bd565b90506200026b82826200021b565b919050565b600067ffffffffffffffff8211156200028e576200028d620001ec565b5b6200029982620001db565b9050602081019050919050565b60005b83811015620002c6578082015181840152602081019050620002a9565b60008484015250505050565b6000620002e9620002e38462000270565b62000251565b905082815260208101848484011115620003085762000307620001d6565b5b62000315848285620002a6565b509392505050565b600082601f830112620003355762000334620001d1565b5b815162000347848260208601620002d2565b91505092915050565b600080600080608085870312156200036d576200036c620001c7565b5b600085015167ffffffffffffffff8111156200038e576200038d620001cc565b5b6200039c878288016200031d565b945050602085015167ffffffffffffffff811115620003c057620003bf620001cc565b5b620003ce878288016200031d565b935050604085015167ffffffffffffffff811115620003f257620003f1620001cc565b5b62000400878288016200031d565b925050606085015167ffffffffffffffff811115620004245762000423620001cc565b5b62000432878288016200031d565b91505092959194509250565b600081519050919050565b7f4e487b7100000000000000000000000000000000000000000000000000000000600052602260045260246000fd5b600060028204905060018216806200049157607f821691505b602082108103620004a757620004a662000449565b5b50919050565b60008190508160005260206000209050919050565b60006020601f8301049050919050565b600082821b905092915050565b600060088302620005117fffffffffffffffffffffffffffffffffffffffffffffffffffffffffffffffff82620004d2565b6200051d8683620004d2565b95508019841693508086168417925050509392505050565b6000819050919050565b6000819050919050565b60006200056a620005646200055e8462000535565b6200053f565b62000535565b9050919050565b6000819050919050565b620005868362000549565b6200059e620005958262000571565b848454620004df565b825550505050565b600090565b620005b5620005a6565b620005c28184846200057b565b505050565b5b81811015620005ea57620005de600082620005ab565b600181019050620005c8565b5050565b601f82111562000639576200060381620004ad565b6200060e84620004c2565b810160208510156200061e578190505b620006366200062d85620004c2565b830182620005c7565b50505b505050565b600082821c905092915050565b60006200065e600019846008026200063e565b1980831691505092915050565b60006200067983836200064b565b9150826002028217905092915050565b62000694826200043e565b67ffffffffffffffff811115620006b057620006af620001ec565b5b620006bc825462000478565b620006c9828285620005ee565b600060209050601f831160018114620007015760008415620006ec578287015190505b620006f885826200066b565b86555062000768565b601f1984166200071186620004ad565b60005b828110156200073b5784890151825560018201915060208501945060208101905062000714565b868310156200075b578489015162000757601f8916826200064b565b8355505b6001600288020188555050505b505050505050565b61342280620007806000396000f3fe60806040526004361061019c5760003560e01c806370a08231116100ec578063b88d4fde1161008a578063d5abeb0111610064578063d5abeb0114610586578063e985e9c5146105b1578063f0293fd3146105ee578063f2fde38b1461062b5761019c565b8063b88d4fde146104f5578063bdb4b8481461051e578063c87b56dd146105495761019c565b806395d89b41116100c657806395d89b411461045a578063a0712d6814610485578063a22cb465146104a1578063aeb57f65146104ca5761019c565b806370a08231146103db578063715018a6146104185780638da5cb5b1461042f5761019c565b806318160ddd1161015957806342842e0e1161013357806342842e0e14610321578063453c23101461034a57806360018e1d146103755780636352211e1461039e5761019c565b806318160ddd146102c357806323b872dd146102ee5780633ccfd60b146103175761019c565b80630116bc2d146101a157806301ffc9a7146101cc57806306fdde0314610209578063081812fc14610234578063095ea7b3146102715780630e2d56cf1461029a575b600080fd5b3480156101ad57600080fd5b506101b6610654565b6040516101c39190612036565b60405180910390f35b3480156101d857600080fd5b506101f360048036038101906101ee91906120bd565b610667565b6040516102009190612036565b60405180910390f35b34801561021557600080fd5b5061021e610749565b60405161022b919061217a565b60405180910390f35b34801561024057600080fd5b5061025b600480360381019061025691906121d2565b6107db565b6040516102689190612240565b60405180910390f35b34801561027d57600080fd5b5061029860048036038101906102939190612287565b610821565b005b3480156102a657600080fd5b506102c160048036038101906102bc91906122f3565b610938565b005b3480156102cf57600080fd5b506102d861095d565b6040516102e5919061232f565b60405180910390f35b3480156102fa57600080fd5b506103156004803603810190610310919061234a565b610963565b005b61031f6109c3565b005b34801561032d57600080fd5b506103486004803603810190610343919061234a565b610a81565b005b34801561035657600080fd5b5061035f610aa1565b60405161036c919061232f565b60405180910390f35b34801561038157600080fd5b5061039c600480360381019061039791906122f3565b610aa7565b005b3480156103aa57600080fd5b506103c560048036038101906103c091906121d2565b610acc565b6040516103d29190612240565b60405180910390f35b3480156103e757600080fd5b5061040260048036038101906103fd919061239d565b610b7d565b60405161040f919061232f565b60405180910390f35b34801561042457600080fd5b5061042d610c34565b005b34801561043b57600080fd5b50610444610c48565b6040516104519190612240565b60405180910390f35b34801561046657600080fd5b5061046f610c72565b60405161047c919061217a565b60405180910390f35b61049f600480360381019061049a91906121d2565b610d04565b005b3480156104ad57600080fd5b506104c860048036038101906104c391906123ca565b610f25565b005b3480156104d657600080fd5b506104df610f3b565b6040516104ec9190612036565b60405180910390f35b34801561050157600080fd5b5061051c6004803603810190610517919061253f565b610f4e565b005b34801561052a57600080fd5b50610533610fb0565b604051610540919061232f565b60405180910390f35b34801561055557600080fd5b50610570600480360381019061056b91906121d2565b610fb6565b60405161057d919061217a565b60405180910390f35b34801561059257600080fd5b5061059b611105565b6040516105a8919061232f565b60405180910390f35b3480156105bd57600080fd5b506105d860048036038101906105d391906125c2565b61110b565b6040516105e59190612036565b60405180910390f35b3480156105fa57600080fd5b506106156004803603810190610610919061239d565b61119f565b604051610622919061232f565b60405180910390f35b34801561063757600080fd5b50610652600480360381019061064d919061239d565b6111b7565b005b600b60009054906101000a900460ff1681565b60007f80ac58cd000000000000000000000000000000000000000000000000000000007bffffffffffffffffffffffffffffffffffffffffffffffffffffffff1916827bffffffffffffffffffffffffffffffffffffffffffffffffffffffff1916148061073257507f5b5e139f000000000000000000000000000000000000000000000000000000007bffffffffffffffffffffffffffffffffffffffffffffffffffffffff1916827bffffffffffffffffffffffffffffffffffffffffffffffffffffffff1916145b8061074257506107418261123a565b5b9050919050565b60606000805461075890612631565b80601f016020809104026020016040519081016040528092919081815260200182805461078490612631565b80156107d15780601f106107a6576101008083540402835291602001916107d1565b820191906000526020600020905b8154815290600101906020018083116107b457829003601f168201915b5050505050905090565b60006107e6826112a4565b6004600083815260200190815260200160002060009054906101000a900473ffffffffffffffffffffffffffffffffffffffff169050919050565b600061082c82610acc565b90508073ffffffffffffffffffffffffffffffffffffffff168373ffffffffffffffffffffffffffffffffffffffff160361089c576040517f08c379a0000000000000000000000000000000000000000000000000000000008152600401610893906126d4565b60405180910390fd5b8073ffffffffffffffffffffffffffffffffffffffff166108bb6112ef565b73ffffffffffffffffffffffffffffffffffffffff1614806108ea57506108e9816108e46112ef565b61110b565b5b610929576040517f08c379a000000000000000000000000000000000000000000000000000000000815260040161092090612766565b60405180910390fd5b61093383836112f7565b505050565b6109406113b0565b80600b60006101000a81548160ff02191690831515021790555050565b600a5481565b61097461096e6112ef565b8261142e565b6109b3576040517f08c379a00000000000000000000000000000000000000000000000000000000081526004016109aa906127f8565b60405180910390fd5b6109be8383836114c3565b505050565b6109cb6113b0565b60006109d5610c48565b73ffffffffffffffffffffffffffffffffffffffff16476040516109f890612849565b60006040518083038185875af1925050503d8060008114610a35576040519150601f19603f3d011682016040523d82523d6000602084013e610a3a565b606091505b5050905080610a7e576040517f08c379a0000000000000000000000000000000000000000000000000000000008152600401610a75906128aa565b60405180910390fd5b50565b610a9c83838360405180602001604052806000815250610f4e565b505050565b60085481565b610aaf6113b0565b80600b60016101000a81548160ff02191690831515021790555050565b6000806002600084815260200190815260200160002060009054906101000a900473ffffffffffffffffffffffffffffffffffffffff169050600073ffffffffffffffffffffffffffffffffffffffff168173ffffffffffffffffffffffffffffffffffffffff1603610b74576040517f08c379a0000000000000000000000000000000000000000000000000000000008152600401610b6b90612916565b60405180910390fd5b80915050919050565b60008073ffffffffffffffffffffffffffffffffffffffff168273ffffffffffffffffffffffffffffffffffffffff1603610bed576040517f08c379a0000000000000000000000000000000000000000000000000000000008152600401610be4906129a8565b60405180910390fd5b600360008373ffffffffffffffffffffffffffffffffffffffff1673ffffffffffffffffffffffffffffffffffffffff168152602001908152602001600020549050919050565b610c3c6113b0565b610c466000611729565b565b6000600660009054906101000a900473ffffffffffffffffffffffffffffffffffffffff16905090565b606060018054610c8190612631565b80601f0160208091040260200160405190810160405280929190818152602001828054610cad90612631565b8015610cfa5780601f10610ccf57610100808354040283529160200191610cfa565b820191906000526020600020905b815481529060010190602001808311610cdd57829003601f168201915b5050505050905090565b600b60009054906101000a900460ff16610d53576040517f08c379a0000000000000000000000000000000000000000000000000000000008152600401610d4a90612a14565b60405180910390fd5b60075481610d619190612a63565b341015610da3576040517f08c379a0000000000000000000000000000000000000000000000000000000008152600401610d9a90612b09565b60405180910390fd5b60095481600a54610db49190612b29565b1115610df5576040517f08c379a0000000000000000000000000000000000000000000000000000000008152600401610dec90612ba9565b60405180910390fd5b60085481600e60003373ffffffffffffffffffffffffffffffffffffffff1673ffffffffffffffffffffffffffffffffffffffff16815260200190815260200160002054610e439190612b29565b1115610e84576040517f08c379a0000000000000000000000000000000000000000000000000000000008152600401610e7b90612c15565b60405180910390fd5b60005b81811015610f2157600a6000815480929190610ea290612c35565b9190505550600e60003373ffffffffffffffffffffffffffffffffffffffff1673ffffffffffffffffffffffffffffffffffffffff1681526020019081526020016000206000815480929190610ef790612c35565b91905055506000600a549050610f0d33826117ef565b508080610f1990612c35565b915050610e87565b5050565b610f37610f306112ef565b838361180d565b5050565b600b60019054906101000a900460ff1681565b610f5f610f596112ef565b8361142e565b610f9e576040517f08c379a0000000000000000000000000000000000000000000000000000000008152600401610f95906127f8565b60405180910390fd5b610faa84848484611979565b50505050565b60075481565b6060610fc1826119d5565b611000576040517f08c379a0000000000000000000000000000000000000000000000000000000008152600401610ff790612cef565b60405180910390fd5b600b60019054906101000a900460ff16156110a757600d805461102290612631565b80601f016020809104026020016040519081016040528092919081815260200182805461104e90612631565b801561109b5780601f106110705761010080835404028352916020019161109b565b820191906000526020600020905b81548152906001019060200180831161107e57829003601f168201915b50505050509050611100565b60006110b1611a41565b905060008151116110d157604051806020016040528060008152506110fc565b806110db84611ad3565b6040516020016110ec929190612de3565b6040516020818303038152906040525b9150505b919050565b60095481565b6000600560008473ffffffffffffffffffffffffffffffffffffffff1673ffffffffffffffffffffffffffffffffffffffff16815260200190815260200160002060008373ffffffffffffffffffffffffffffffffffffffff1673ffffffffffffffffffffffffffffffffffffffff16815260200190815260200160002060009054906101000a900460ff16905092915050565b600e6020528060005260406000206000915090505481565b6111bf6113b0565b600073ffffffffffffffffffffffffffffffffffffffff168173ffffffffffffffffffffffffffffffffffffffff160361122e576040517f08c379a000000000000000000000000000000000000000000000000000000000815260040161122590612e8f565b60405180910390fd5b61123781611729565b50565b60007f01ffc9a7000000000000000000000000000000000000000000000000000000007bffffffffffffffffffffffffffffffffffffffffffffffffffffffff1916827bffffffffffffffffffffffffffffffffffffffffffffffffffffffff1916149050919050565b6112ad816119d5565b6112ec576040517f08c379a00000000000000000000000000000000000000000000000000000000081526004016112e390612916565b60405180910390fd5b50565b600033905090565b816004600083815260200190815260200160002060006101000a81548173ffffffffffffffffffffffffffffffffffffffff021916908373ffffffffffffffffffffffffffffffffffffffff160217905550808273ffffffffffffffffffffffffffffffffffffffff1661136a83610acc565b73ffffffffffffffffffffffffffffffffffffffff167f8c5be1e5ebec7d5bd14f71427d1e84f3dd0314c0f7b2291e5b200ac8c7c3b92560405160405180910390a45050565b6113b86112ef565b73ffffffffffffffffffffffffffffffffffffffff166113d6610c48565b73ffffffffffffffffffffffffffffffffffffffff161461142c576040517f08c379a000000000000000000000000000000000000000000000000000000000815260040161142390612efb565b60405180910390fd5b565b60008061143a83610acc565b90508073ffffffffffffffffffffffffffffffffffffffff168473ffffffffffffffffffffffffffffffffffffffff16148061147c575061147b818561110b565b5b806114ba57508373ffffffffffffffffffffffffffffffffffffffff166114a2846107db565b73ffffffffffffffffffffffffffffffffffffffff16145b91505092915050565b8273ffffffffffffffffffffffffffffffffffffffff166114e382610acc565b73ffffffffffffffffffffffffffffffffffffffff1614611539576040517f08c379a000000000000000000000000000000000000000000000000000000000815260040161153090612f8d565b60405180910390fd5b600073ffffffffffffffffffffffffffffffffffffffff168273ffffffffffffffffffffffffffffffffffffffff16036115a8576040517f08c379a000000000000000000000000000000000000000000000000000000000815260040161159f9061301f565b60405180910390fd5b6115b3838383611c33565b6115be6000826112f7565b6001600360008573ffffffffffffffffffffffffffffffffffffffff1673ffffffffffffffffffffffffffffffffffffffff168152602001908152602001600020600082825461160e919061303f565b925050819055506001600360008473ffffffffffffffffffffffffffffffffffffffff1673ffffffffffffffffffffffffffffffffffffffff16815260200190815260200160002060008282546116659190612b29565b92505081905550816002600083815260200190815260200160002060006101000a81548173ffffffffffffffffffffffffffffffffffffffff021916908373ffffffffffffffffffffffffffffffffffffffff160217905550808273ffffffffffffffffffffffffffffffffffffffff168473ffffffffffffffffffffffffffffffffffffffff167fddf252ad1be2c89b69c2b068fc378daa952ba7f163c4a11628f55a4df523b3ef60405160405180910390a4611724838383611c38565b505050565b6000600660009054906101000a900473ffffffffffffffffffffffffffffffffffffffff16905081600660006101000a81548173ffffffffffffffffffffffffffffffffffffffff021916908373ffffffffffffffffffffffffffffffffffffffff1602179055508173ffffffffffffffffffffffffffffffffffffffff168173ffffffffffffffffffffffffffffffffffffffff167f8be0079c531659141344cd1fd0a4f28419497f9722a3daafe3b4186f6b6457e060405160405180910390a35050565b611809828260405180602001604052806000815250611c3d565b5050565b8173ffffffffffffffffffffffffffffffffffffffff168373ffffffffffffffffffffffffffffffffffffffff160361187b576040517f08c379a0000000000000000000000000000000000000000000000000000000008152600401611872906130bf565b60405180910390fd5b80600560008573ffffffffffffffffffffffffffffffffffffffff1673ffffffffffffffffffffffffffffffffffffffff16815260200190815260200160002060008473ffffffffffffffffffffffffffffffffffffffff1673ffffffffffffffffffffffffffffffffffffffff16815260200190815260200160002060006101000a81548160ff0219169083151502179055508173ffffffffffffffffffffffffffffffffffffffff168373ffffffffffffffffffffffffffffffffffffffff167f17307eab39ab6107e8899845ad3d59bd9653f200f220920489ca2b5937696c318360405161196c9190612036565b60405180910390a3505050565b6119848484846114c3565b61199084848484611c98565b6119cf576040517f08c379a00000000000000000000000000000000000000000000000000000000081526004016119c690613151565b60405180910390fd5b50505050565b60008073ffffffffffffffffffffffffffffffffffffffff166002600084815260200190815260200160002060009054906101000a900473ffffffffffffffffffffffffffffffffffffffff1673ffffffffffffffffffffffffffffffffffffffff1614159050919050565b6060600c8054611a5090612631565b80601f0160208091040260200160405190810160405280929190818152602001828054611a7c90612631565b8015611ac95780601f10611a9e57610100808354040283529160200191611ac9565b820191906000526020600020905b815481529060010190602001808311611aac57829003601f168201915b5050505050905090565b606060008203611b1a576040518060400160405280600181526020017f30000000000000000000000000000000000000000000000000000000000000008152509050611c2e565b600082905060005b60008214611b4c578080611b3590612c35565b915050600a82611b4591906131a0565b9150611b22565b60008167ffffffffffffffff811115611b6857611b67612414565b5b6040519080825280601f01601f191660200182016040528015611b9a5781602001600182028036833780820191505090505b5090505b60008514611c2757600182611bb3919061303f565b9150600a85611bc291906131d1565b6030611bce9190612b29565b60f81b818381518110611be457611be3613202565b5b60200101907effffffffffffffffffffffffffffffffffffffffffffffffffffffffffffff1916908160001a905350600a85611c2091906131a0565b9450611b9e565b8093505050505b919050565b505050565b505050565b611c478383611e1f565b611c546000848484611c98565b611c93576040517f08c379a0000000000000000000000000000000000000000000000000000000008152600401611c8a90613151565b60405180910390fd5b505050565b6000611cb98473ffffffffffffffffffffffffffffffffffffffff16611ff8565b15611e12578373ffffffffffffffffffffffffffffffffffffffff1663150b7a02611ce26112ef565b8786866040518563ffffffff1660e01b8152600401611d049493929190613286565b6020604051808303816000875af1925050508015611d4057506040513d601f19601f82011682018060405250810190611d3d91906132e7565b60015b611dc2573d8060008114611d70576040519150601f19603f3d011682016040523d82523d6000602084013e611d75565b606091505b506000815103611dba576040517f08c379a0000000000000000000000000000000000000000000000000000000008152600401611db190613151565b60405180910390fd5b805181602001fd5b63150b7a0260e01b7bffffffffffffffffffffffffffffffffffffffffffffffffffffffff1916817bffffffffffffffffffffffffffffffffffffffffffffffffffffffff191614915050611e17565b600190505b949350505050565b600073ffffffffffffffffffffffffffffffffffffffff168273ffffffffffffffffffffffffffffffffffffffff1603611e8e576040517f08c379a0000000000000000000000000000000000000000000000000000000008152600401611e8590613360565b60405180910390fd5b611e97816119d5565b15611ed7576040517f08c379a0000000000000000000000000000000000000000000000000000000008152600401611ece906133cc565b60405180910390fd5b611ee360008383611c33565b6001600360008473ffffffffffffffffffffffffffffffffffffffff1673ffffffffffffffffffffffffffffffffffffffff1681526020019081526020016000206000828254611f339190612b29565b92505081905550816002600083815260200190815260200160002060006101000a81548173ffffffffffffffffffffffffffffffffffffffff021916908373ffffffffffffffffffffffffffffffffffffffff160217905550808273ffffffffffffffffffffffffffffffffffffffff16600073ffffffffffffffffffffffffffffffffffffffff167fddf252ad1be2c89b69c2b068fc378daa952ba7f163c4a11628f55a4df523b3ef60405160405180910390a4611ff460008383611c38565b5050565b6000808273ffffffffffffffffffffffffffffffffffffffff163b119050919050565b60008115159050919050565b6120308161201b565b82525050565b600060208201905061204b6000830184612027565b92915050565b6000604051905090565b600080fd5b600080fd5b60007fffffffff0000000000000000000000000000000000000000000000000000000082169050919050565b61209a81612065565b81146120a557600080fd5b50565b6000813590506120b781612091565b92915050565b6000602082840312156120d3576120d261205b565b5b60006120e1848285016120a8565b91505092915050565b600081519050919050565b600082825260208201905092915050565b60005b83811015612124578082015181840152602081019050612109565b60008484015250505050565b6000601f19601f8301169050919050565b600061214c826120ea565b61215681856120f5565b9350612166818560208601612106565b61216f81612130565b840191505092915050565b600060208201905081810360008301526121948184612141565b905092915050565b6000819050919050565b6121af8161219c565b81146121ba57600080fd5b50565b6000813590506121cc816121a6565b92915050565b6000602082840312156121e8576121e761205b565b5b60006121f6848285016121bd565b91505092915050565b600073ffffffffffffffffffffffffffffffffffffffff82169050919050565b600061222a826121ff565b9050919050565b61223a8161221f565b82525050565b60006020820190506122556000830184612231565b92915050565b6122648161221f565b811461226f57600080fd5b50565b6000813590506122818161225b565b92915050565b6000806040838503121561229e5761229d61205b565b5b60006122ac85828601612272565b92505060206122bd858286016121bd565b9150509250929050565b6122d08161201b565b81146122db57600080fd5b50565b6000813590506122ed816122c7565b92915050565b6000602082840312156123095761230861205b565b5b6000612317848285016122de565b91505092915050565b6123298161219c565b82525050565b60006020820190506123446000830184612320565b92915050565b6000806000606084860312156123635761236261205b565b5b600061237186828701612272565b935050602061238286828701612272565b9250506040612393868287016121bd565b9150509250925092565b6000602082840312156123b3576123b261205b565b5b60006123c184828501612272565b91505092915050565b600080604083850312156123e1576123e061205b565b5b60006123ef85828601612272565b9250506020612400858286016122de565b9150509250929050565b600080fd5b600080fd5b7f4e487b7100000000000000000000000000000000000000000000000000000000600052604160045260246000fd5b61244c82612130565b810181811067ffffffffffffffff8211171561246b5761246a612414565b5b80604052505050565b600061247e612051565b905061248a8282612443565b919050565b600067ffffffffffffffff8211156124aa576124a9612414565b5b6124b382612130565b9050602081019050919050565b82818337600083830152505050565b60006124e26124dd8461248f565b612474565b9050828152602081018484840111156124fe576124fd61240f565b5b6125098482856124c0565b509392505050565b600082601f8301126125265761252561240a565b5b81356125368482602086016124cf565b91505092915050565b600080600080608085870312156125595761255861205b565b5b600061256787828801612272565b945050602061257887828801612272565b9350506040612589878288016121bd565b925050606085013567ffffffffffffffff8111156125aa576125a9612060565b5b6125b687828801612511565b91505092959194509250565b600080604083850312156125d9576125d861205b565b5b60006125e785828601612272565b92505060206125f885828601612272565b9150509250929050565b7f4e487b7100000000000000000000000000000000000000000000000000000000600052602260045260246000fd5b6000600282049050600182168061264957607f821691505b60208210810361265c5761265b612602565b5b50919050565b7f4552433732313a20617070726f76616c20746f2063757272656e74206f776e6560008201527f7200000000000000000000000000000000000000000000000000000000000000602082015250565b60006126be6021836120f5565b91506126c982612662565b604082019050919050565b600060208201905081810360008301526126ed816126b1565b9050919050565b7f4552433732313a20617070726f76652063616c6c6572206973206e6f7420746f60008201527f6b656e206f776e6572206e6f7220617070726f76656420666f7220616c6c0000602082015250565b6000612750603e836120f5565b915061275b826126f4565b604082019050919050565b6000602082019050818103600083015261277f81612743565b9050919050565b7f4552433732313a2063616c6c6572206973206e6f7420746f6b656e206f776e6560008201527f72206e6f7220617070726f766564000000000000000000000000000000000000602082015250565b60006127e2602e836120f5565b91506127ed82612786565b604082019050919050565b60006020820190508181036000830152612811816127d5565b9050919050565b600081905092915050565b50565b6000612833600083612818565b915061283e82612823565b600082019050919050565b600061285482612826565b9150819050919050565b7f5769746864726177206661696c65642e00000000000000000000000000000000600082015250565b60006128946010836120f5565b915061289f8261285e565b602082019050919050565b600060208201905081810360008301526128c381612887565b9050919050565b7f4552433732313a20696e76616c696420746f6b656e2049440000000000000000600082015250565b60006129006018836120f5565b915061290b826128ca565b602082019050919050565b6000602082019050818103600083015261292f816128f3565b9050919050565b7f4552433732313a2061646472657373207a65726f206973206e6f74206120766160008201527f6c6964206f776e65720000000000000000000000000000000000000000000000602082015250565b60006129926029836120f5565b915061299d82612936565b604082019050919050565b600060208201905081810360008301526129c181612985565b9050919050565b7f4d696e74696e672064697361626c6564206279206f776e65722e000000000000600082015250565b60006129fe601a836120f5565b9150612a09826129c8565b602082019050919050565b60006020820190508181036000830152612a2d816129f1565b9050919050565b7f4e487b7100000000000000000000000000000000000000000000000000000000600052601160045260246000fd5b6000612a6e8261219c565b9150612a798361219c565b9250817fffffffffffffffffffffffffffffffffffffffffffffffffffffffffffffffff0483118215151615612ab257612ab1612a34565b5b828202905092915050565b7f57726f6e67206d696e742076616c75652e000000000000000000000000000000600082015250565b6000612af36011836120f5565b9150612afe82612abd565b602082019050919050565b60006020820190508181036000830152612b2281612ae6565b9050919050565b6000612b348261219c565b9150612b3f8361219c565b9250828201905080821115612b5757612b56612a34565b5b92915050565b7f536f6c64206f75742e0000000000000000000000000000000000000000000000600082015250565b6000612b936009836120f5565b9150612b9e82612b5d565b602082019050919050565b60006020820190508181036000830152612bc281612b86565b9050919050565b7f4d617820636f6c6c65637469626c657320726561636865642e00000000000000600082015250565b6000612bff6019836120f5565b9150612c0a82612bc9565b602082019050919050565b60006020820190508181036000830152612c2e81612bf2565b9050919050565b6000612c408261219c565b91507fffffffffffffffffffffffffffffffffffffffffffffffffffffffffffffffff8203612c7257612c71612a34565b5b600182019050919050565b7f4552433732314d657461646174613a2055524920717565727920666f72206e6f60008201527f6e6578697374656e7420746f6b656e0000000000000000000000000000000000602082015250565b6000612cd9602f836120f5565b9150612ce482612c7d565b604082019050919050565b60006020820190508181036000830152612d0881612ccc565b9050919050565b600081905092915050565b6000612d25826120ea565b612d2f8185612d0f565b9350612d3f818560208601612106565b80840191505092915050565b7f2f00000000000000000000000000000000000000000000000000000000000000600082015250565b6000612d81600183612d0f565b9150612d8c82612d4b565b600182019050919050565b7f2e6a736f6e000000000000000000000000000000000000000000000000000000600082015250565b6000612dcd600583612d0f565b9150612dd882612d97565b600582019050919050565b6000612def8285612d1a565b9150612dfa82612d74565b9150612e068284612d1a565b9150612e1182612dc0565b91508190509392505050565b7f4f776e61626c653a206e6577206f776e657220697320746865207a65726f206160008201527f6464726573730000000000000000000000000000000000000000000000000000602082015250565b6000612e796026836120f5565b9150612e8482612e1d565b604082019050919050565b60006020820190508181036000830152612ea881612e6c565b9050919050565b7f4f776e61626c653a2063616c6c6572206973206e6f7420746865206f776e6572600082015250565b6000612ee56020836120f5565b9150612ef082612eaf565b602082019050919050565b60006020820190508181036000830152612f1481612ed8565b9050919050565b7f4552433732313a207472616e736665722066726f6d20696e636f72726563742060008201527f6f776e6572000000000000000000000000000000000000000000000000000000602082015250565b6000612f776025836120f5565b9150612f8282612f1b565b604082019050919050565b60006020820190508181036000830152612fa681612f6a565b9050919050565b7f4552433732313a207472616e7366657220746f20746865207a65726f2061646460008201527f7265737300000000000000000000000000000000000000000000000000000000602082015250565b60006130096024836120f5565b915061301482612fad565b604082019050919050565b6000602082019050818103600083015261303881612ffc565b9050919050565b600061304a8261219c565b91506130558361219c565b925082820390508181111561306d5761306c612a34565b5b92915050565b7f4552433732313a20617070726f766520746f2063616c6c657200000000000000600082015250565b60006130a96019836120f5565b91506130b482613073565b602082019050919050565b600060208201905081810360008301526130d88161309c565b9050919050565b7f4552433732313a207472616e7366657220746f206e6f6e20455243373231526560008201527f63656976657220696d706c656d656e7465720000000000000000000000000000602082015250565b600061313b6032836120f5565b9150613146826130df565b604082019050919050565b6000602082019050818103600083015261316a8161312e565b9050919050565b7f4e487b7100000000000000000000000000000000000000000000000000000000600052601260045260246000fd5b60006131ab8261219c565b91506131b68361219c565b9250826131c6576131c5613171565b5b828204905092915050565b60006131dc8261219c565b91506131e78361219c565b9250826131f7576131f6613171565b5b828206905092915050565b7f4e487b7100000000000000000000000000000000000000000000000000000000600052603260045260246000fd5b600081519050919050565b600082825260208201905092915050565b600061325882613231565b613262818561323c565b9350613272818560208601612106565b61327b81612130565b840191505092915050565b600060808201905061329b6000830187612231565b6132a86020830186612231565b6132b56040830185612320565b81810360608301526132c7818461324d565b905095945050505050565b6000815190506132e181612091565b92915050565b6000602082840312156132fd576132fc61205b565b5b600061330b848285016132d2565b91505092915050565b7f4552433732313a206d696e7420746f20746865207a65726f2061646472657373600082015250565b600061334a6020836120f5565b915061335582613314565b602082019050919050565b600060208201905081810360008301526133798161333d565b9050919050565b7f4552433732313a20746f6b656e20616c7265616479206d696e74656400000000600082015250565b60006133b6601c836120f5565b91506133c182613380565b602082019050919050565b600060208201905081810360008301526133e5816133a9565b905091905056fea264697066735822122040b131196111d0dc81cd2be6f6fe36beb66addb65f0756016635f2c67053aac364736f6c63430008100033",
  "linkReferences": {},
  "deployedLinkReferences": {}
}